:100000000C9434000C9446000C9446000C9446006A
:100010000C9446000C9446000C9446000C94460048
:100020000C9446000C9446000C9446000C94460038
:100030000C9446000C9446000C9446000C94460028
:100040000C9446000C9446000C9448000C94460016
:100050000C9446000C9460000C9446000C944600EE
:100060000C9446000C94460011241FBECFEFD8E03C
:10007000DEBFCDBF11E0A0E0B1E001C01D92A33012
:10008000B107E1F70E94A4000C9425010C94000034
:100090001F920F920FB60F9211248F93EF93FF933D
:1000A000E6ECF0E080818093010180910101808382
:1000B000FF91EF918F910F900FBE0F901F901895A9
:1000C0001F920F920FB60F9211248F938091780098
:1000D0008093000180917900809302018F910F90AD
:1000E0000FBE0F901F901895ECE7F0E080818160C3
:1000F0008083808180648083EAE7F0E08081886A81
:10010000808380818760808310927B0080818064FF
:10011000808308951092C50087E68093C400E1ECC7
:10012000F0E0808188618083A2ECB0E08C918660F1
:100130008C9380818068808308959091C00095FFA2
:10014000FCCF8093C6000895259AF8940E9474000D
:100150000E948A007894809102010E949D00809103
:1001600000010E949D008AE00E949D002FEF37E66B
:1001700089E899E02150304080409040D9F700C094
:1001800000002FEF37E689E899E0215030408040A9
:100190009040D9F700C000002FEF37E689E899E0DA
:1001A0002150304080409040D9F700C000002FEF30
:1001B00037E689E899E02150304080409040D9F7F7
:1001C00000C000002FEF37E689E899E02150304069
:1001D00080409040D9F700C000002FEF37E689E853
:1001E00099E02150304080409040D9F700C0000095
:1001F0002FEF37E689E899E0215030408040904069
:10020000D9F700C000002FEF37E689E899E02150C8
:10021000304080409040D9F700C000002FEF37E613
:1002200089E899E02150304080409040D9F700C0E3
:1002300000002FEF37E689E899E0215030408040F8
:0E0240009040D9F700C0000086CFF894FFCFA1
:00000001FF
