:100000000C9434000C9453000C9451000C94510047
:100010000C9451000C9451000C9451000C9451001C
:100020000C9451000C9451000C9451000C9451000C
:100030000C9451000C9451000C9451000C945100FC
:100040000C9451000C9451000C9482000C945100BB
:100050000C9451000C9451000C9451000C945100DC
:100060000C9451000C94510011241FBECFEFD8E026
:10007000DEBFCDBF11E0A0E0B1E0E0E6F2E002C0FB
:1000800005900D92AC30B107D9F711E0ACE0B1E0CA
:1000900001C01D92AE30B107E1F70E94F4000C944C
:1000A0002E010C9400001F920F920FB60F92112494
:1000B0002F938F939F932FEF85EA9EE021508040EE
:1000C0009040E1F700C0000081E080930D019F9116
:1000D0008F912F910F900FBE0F901F9018959091B8
:1000E000C00095FFFCCF8093C6000895CF93DF93A7
:1000F000EC018991882319F00E946F00FACFDF91FB
:10010000CF9108951F920F920FB60F9211242F9343
:100110003F934F935F936F937F938F939F93AF938F
:10012000BF93EF93FF938091C60080930C01809161
:100130000C01813331F484E091E00E9476002D9A25
:1001400042C080910C01803331F487E091E00E943D
:1001500076002D9838C080910C018332A1F585B1CD
:1001600090E2892785B92FEF83EC99E021508040F8
:100170009040E1F700C0000085B190E2892785B981
:100180002FEF83EC99E0215080409040E1F700C0D0
:10019000000085B190E2892785B92FEF83EC99E0C3
:1001A000215080409040E1F700C0000085B190E20E
:1001B000892785B92FEF83EC99E02150804090404A
:1001C000E1F700C00000FF91EF91BF91AF919F91C7
:1001D0008F917F916F915F914F913F912F910F90F0
:1001E0000FBE0F901F901895259A52985A9AF8941E
:1001F0001092C50087E68093C4008091C100886199
:100200008093C1008091C20086608093C20080917B
:10021000C10080688093C1008091690082608093F2
:100220006900E89A2D98789480910D018823E1F374
:10023000F89485B1803231F080E091E00E94760040
:100240002D9A08C085B1803229F482E091E00E94A5
:1002500076002D98789410920D01E6CFF894FFCF98
:0C026000310030006F6E006F6666000019
:00000001FF
